:10039500900021E0D39424400EE0943C5009900055
:1003A500127401F01207BC900021E0C3943C400692
:1003B5009000247401F0900021E0C3945A40097420
:1003C5005AF09000207401F0900019E0C313FEA3C9
:1003D500E013FFC3900001E09F900000E09E5008ED
:1003E50090001F7401F08005E490001FF090001F3D
:1003F500E0700320B30A90001FE0B4010A20B307A0
:10040500E4900015F080069000157401F09000113D
:10041500E0C313FFD390001AE09F900019E0940009
:1004250050089000137401F08005E4900013F090DB
:100435000011E0FFD390001AE09F900019E09400AE
:1004450050089000057401F08005E4900005F090D7
:10045500001BE0700690003004F022E4900030F0BC
:010465002274
:10006600C3900041E094FF900040E0947F5018A3B5
:10007600E09468900040E09442400CE4900028F040
:1000860090003804F0800AE4900038F090002804CC
:10009600F0C3900041E094FF900040E0947F401F41
:1000A600E0FEA3E0FFE4FCFD7B687AC2F9F81202E9
:1000B600B1500CE490002AF090003704F0800B90C9
:1000C600002A7401F0E4900037F0C3900041E094F8
:1000D600FF900040E0947F500890001B7401F08070
:1000E60005E490001BF0D3900041E0948890004016
:1000F600E094134014E0FEA3E0FFE4FCFD7B787A75
:100106006CF9F8D31202B15023D3900041E09487E2
:10011600900040E09493401CE0FEA3E0FFE4FCFD69
:100126007B777AECF9F8D31202B140089000187484
:1001360001F08005E4900018F030B308900038E034
:100146006401600920B30E90002AE0700890002C2C
:100156007401F08005E490002CF0900015E0B401E5
:1001660008900037E06401600C900015E0700E9076
:100176000028E0700890002F7401F08005E49000DC
:100186002FF0900018E07003120751900008E0C3AA
:0F019600940A5007A3E0C3940A40031200062204
:1005AF001207371207941207A2120056120784126D
:1005BF00075112076BD2AF1206FCD3900043E094A1
:1005CF0000900042E0648094804015E0FEA3E0FFBD
:1005DF00900041E09F900040E09E5004D2CD8002F9
:1005EF00C2CDC3900042E064809480502EE0FEA301
:1005FF00E0FFEE3395E0FDFCEF24FFFBEE34FFFA56
:10060F00E43DF9E43CF8900040E0FEA3E0FFE4FC99
:10061F00FDC31202B15004D2C78002C2C7120395A4
:05062F0012006680923C
:030000000207B044
:0C07B000787FE4F6D8FD75810F0205AFDC
:10073700E4F594F593F592F5917596FFF595F5A087
:0A074700F5B275B1FCF5B4F5B3226C
:0E0794005389F0758CFF758A9CD28CD2A922F5
:0E07A20053890F758DFF758B9CD28ED2AB22C2
:0D00560075D6BE75D7E6438E1043AF042269
:10078400C288D2A8D2B8C28AD2AAD2BA438F1022BF
:10075100E4900029F090002BF0900008F09000093F
:0A076100F0900022F0C2A1C2A22213
:10076B00900019E4F0A37464F0E4900000F0A3F09F
:09077B009000117464F0020751B2
:030003000201A552
:1001A500C0E0C0F0C083C082C0D075D00830B21B9B
:1001B5009000457401F0900038E4F090002804F0B8
:1001C50090002AF0900037E4F08013900038740115
:1001D500F0900037F0900028E4F090002AF09000AD
:1001E50021E004F0900012E0B4011E900024E070BC
:1001F50018900020E07012900025E0FFA3E0900029
:100205000ECFF0A3EFF0020298900012E0B4011FA8
:10021500900024E0B40118900020E0701290000EC8
:100225007441F0A3741AF075D6BE75D7E680649054
:100235000012E06401705C900024E0640170549049
:100245000020E06401704C90000EE0FEA3E0FBAAE4
:100255000EE4C39BFFE49EFE74019400FDE494004C
:10026500FCE4FB7A01F9F81206B88FD690000EE08F
:10027500FEA3E0FBAA0EE4C39BFFE49EFE7401947B
:1002850000FDE49400FCE4FB7A01F9F81206B8AF2E
:0E0295000B8FD7D0D0D082D083D0F0D0E03203
:03001300020634AE
:10063400C0E0C083C082C0D075D00820B30790004A
:1006440000E4F0A3F030B363900000E0FFA3E09077
:100654000019CFF0A3EFF0900000E4F0A3F09000B5
:1006640040E0FFA3E0900016CFF0A3EFF0D390009A
:1006740017E094FF900016E0947F4020E0FEA3E092
:10068400FBAA0E74FF9BFF74FF9EFEE49400FDE43E
:100694009400FC1202A3900042EE800B900016E03E
:1006A400FFA3E0900042CFF0A3EFF0D0D0D082D0EF
:0406B40083D0E032DD
:0300530002000E9A
:01000E0032BF
:03000B0002000FE1
:01000F0032BE
:03001B0002051EBD
:10051E00C0E0C083C082C0D0900008E0C3940A50EF
:10052E0015900029E0B4010AB2A1900008E004F091
:10053E008006C2A18002C2A1900009E0C3940A50B5
:10054E001590002BE0B4010AB2A2900009E004F06D
:10055E008006C2A28002C2A2900045E0B40117E458
:10056E00F0900040F0A3F090003FE0900011F0906A
:10057E00003FE4F08014900041E02447F0900040EA
:10058E00E03401F090003FE004F0900001E004F050
:10059E007006900000E004F0D0D0D082D083D0E07E
:0105AE00321A
:0300630002001E7A
:10001E00C0E0C083C082C0D075D008900034E00428
:10002E00F0900031E0B4010C900012E0B4010590A4
:0D003E000024E0FFD0D0D082D083D0E0328B
:1006FC0090002CE0B40116900018E0B4010F9000AB
:10070C002BE07009900022E070031207BC90002FC0
:10071C00E0B40116900018E0B4010F900029E070CD
:0B072C0009900022E070031207C722B2
:0B07BC009000297401F0900022F02250
:0B07C70090002B7401F0900022F02243
:05000600C2A1C2A2220C
:10046600900012E06401600302051D900024E06420
:1004760001600302051D900020E06401600302058F
:100486001D900023E0600302051D7405F0900042F4
:10049600E0FEA3E0FFC374729F90002EF0741C9ED2
:1004A60090002DF0E0FF3395E0FE90000FE02FF076
:1004B60090000EE03EF0900003E024FAFE90000269
:1004C600E0341490000CF0A3CEF0900002E0FFA3FD
:1004D600E090000ACFF0A3EFF090000CE0FEA3E05E
:1004E600FFC390000FE09F90000EE09E4005900035
:1004F6000C801890000AE0FEA3E0FFD390000FE006
:100506009F90000EE09E500F90000AE0FFA3E0903F
:08051600000ECFF0A3EFF0226C
:1006B800C2D5E830E70FB2D5E4C39BFBE49AFAE46D
:1006C80099F9E498F8EC30E717B2D51206EE120360
:1006D80003E4C39BFBE49AFAE499F9E498F88003ED
:1006E80012030330D50DE4C39FFFE49EFEE49DFD95
:0406F800E49CFC2260
:0E02A300C3E49FFFE49EFEE49DFDE49CFC226C
:1002B100EB9FF5F0EA9E42F0E99D42F0EC6480C8C4
:0602C10064809845F02264
:1002C70075F008758200EF2FFFEE33FECD33CDCCEE
:1002D70033CCC58233C5829BED9AEC99E582984071
:1002E7000CF582EE9BFEED9AFDEC99FC0FD5F0D64E
:1002F700E4CEFBE4CDFAE4CCF9A88222B800C1B978
:100307000059BA002DEC8BF084CFCECDFCE5F0CBB5
:10031700F97818EF2FFFEE33FEED33FDEC33FCEBEE
:1003270033FB10D703994004EB99FB0FD8E5E4F9A9
:10033700FA227818EF2FFFEE33FEED33FDEC33FC96
:10034700C933C910D7059BE99A4007EC9BFCE99A8A
:10035700F90FD8E0E4C9FAE4CCFB2275F010EF2FCF
:10036700FFEE33FEED33FDCC33CCC833C810D707CF
:100377009BEC9AE899400AED9BFDEC9AFCE899F80A
:0E0387000FD5F0DAE4CDFBE4CCFAE4C8F9229D
:00000001FF
