:1005CB0090001EE0D39424400EE0943C5009900020
:1005DB00107401F012081990001EE0C3943C400601
:1005EB009000207401F090001EE0C3945A400974EF
:1005FB005AF090001D7401F0900016E0C313FEA397
:10060B00E013FFC3900001E09F900000E09E5008B4
:10061B0090001C7401F08005E490001CF090001C0D
:10062B00E0700320B30A90001CE0B4010A20B3076A
:10063B00E4900012F080069000127401F090001804
:0F064B00E0700690002C04F022E490002CF022C6
:10006600C390003CE094FF90003BE0947F5018A3BF
:10007600E0942090003BE0944E400CE4900024F085
:1000860090003404F0800AE4900034F090002404D8
:10009600F0C390003CE094FF90003BE0947F401F4B
:1000A600E0FEA3E0FFE4FCFD7B207ACEF9F8120225
:1000B600B1500CE4900026F090003304F0800B90D1
:1000C60000267401F0E4900033F0C390003CE09405
:1000D600FF90003BE0947F50089000187401F08078
:1000E60005E4900018F0D390003CE0948890003B23
:1000F600E094134014E0FEA3E0FFE4FCFD7B787A75
:100106006CF9F8D31202B15023D390003CE09487E7
:1001160090003BE09493401CE0FEA3E0FFE4FCFD6E
:100126007B777AECF9F8D31202B140089000157487
:1001360001F08005E4900015F030B308900034E03B
:100146006401600920B30E900026E0700890002834
:100156007401F08005E4900028F0900012E0B401EC
:1001660008900033E06401600C900012E0700E907D
:100176000024E0700890002B7401F08005E49000E4
:100186002BF0900015E070031207A8900007E0C35B
:0F019600940A5007A3E0C3940A40031200062204
:10001E0012078E1207F11207FF1200561207E11295
:10002E0007A81207D0D2AF12072130A104D2CD807B
:10003E0002C2CD30A204D2C78002C2C71205CB12B3
:04004E00006680E3E5
:0300000002080DE6
:0C080D00787FE4F6D8FD75810F02001E14
:10078E00E4F594F593F592F5917596FFF595F5A030
:0A079E00F5B275B1FCF5B4F5B32215
:0E07F1005389F0758CFF758A9CD28CD2A92298
:0E07FF0053890F758DFF758B9CD28ED2AB2265
:0D00560075D6BE75D7E6438E1043AF042269
:1007E100C288D2A8D2B8C28AD2AAD2BA438F102262
:1007A800E4900025F0900027F0900007F0900008F2
:0607B800F0C2A1C2A22262
:1007D000900016E4F0A37464F0E4900000F0A3F03D
:0107E00022F6
:030003000201A552
:1001A500C0E0C0F0C083C082C0D075D00830B21B9B
:1001B5009000407401F0900034E4F090002404F0C5
:1001C500900026F0900033E4F08013900034740121
:1001D500F0900033F0900024E4F0900026F09000B9
:1001E5001EE004F0900010E0B4011E900020E070C5
:1001F5001890001DE07012900021E0FFA3E0900030
:100205000DCFF0A3EFF0020298900010E0B4011FAB
:10021500900020E0B4011890001DE0701290000DD0
:100225007441F0A3741AF075D6BE75D7E680649054
:100235000010E06401705C900020E064017054904F
:10024500001DE06401704C90000DE0FEA3E0FBAAE8
:100255000EE4C39BFFE49EFE74019400FDE494004C
:10026500FCE4FB7A01F9F81206DD8FD690000DE06B
:10027500FEA3E0FBAA0EE4C39BFFE49EFE7401947B
:1002850000FDE49400FCE4FB7A01F9F81206DDAF09
:0E0295000B8FD7D0D0D082D083D0F0D0E03203
:03001300020523C0
:10052300C0E0C083C082C0D075D00820B30790005C
:1005330000E4F0A3F020B3030205C2900000E0FF43
:10054300A3E0900016CFF0A3EFF0900000E4F0A337
:10055300F090003BE0FFA3E0900013CFF0A3EFF097
:10056300D3900014E094FF900013E0947F4020E0C8
:10057300FEA3E0FBAA0E74FF9BFF74FF9EFEE494B0
:1005830000FDE49400FC1202A390003DEE800B906A
:100593000013E0FFA3E090003DCFF0A3EFF0900045
:1005A3001DE0B4011A9000197401F0900011E0D31A
:1005B300946440069000377401F0900011E4F0D089
:0805C300D0D082D083D0E032D9
:0300530002000E9A
:01000E0032BF
:03000B0002000FE1
:01000F0032BE
:03001B0002065A80
:10065A00C0E0C083C082C0D0900007E0C3940A50B3
:10066A0011900025E0B4010CB2A1900007E004F05B
:10067A008002C2A1900008E0C3940A50119000279A
:10068A00E0B4010CB2A2900008E004F08002C2A219
:10069A00900040E0B4010AE4F090003BF0A3F0803F
:1006AA000E90003CE02447F090003BE03401F090CB
:1006BA000001E004F07006900000E004F0900019D8
:1006CA00E0B40106900011E004F0D0D0D082D083CB
:0306DA00D0E0323B
:0300630002076130
:10076100C0E0C083C082C0D075D008900030E004E2
:10077100F090002DE0B4010C900010E0B401059060
:0D0781000020E0FFD0D0D082D083D0E03245
:10072100900028E0B40114900015E0B4010D900090
:1007310027E0700790002504F08005E4900025F083
:1007410090002BE0B40113900015E0B4010C90006F
:1007510025E0700690002704F022E4900027F022A3
:070819009000257401F0229C
:1007BE00900025E0700690002704F022E4900027B8
:0207CE00F02217
:05000600C2A1C2A2220C
:10039500D3900032E09434900031E0940350028011
:1003A5000FD3900032E09440900031E09403501553
:1003B500900002742CF0A374D9F09000217427F0FA
:1003C500A3741CF022D3900032E09450900031E0E9
:1003D500940350149000027431F0A314F09000219E
:1003E500742EF0A374EFF022D3900032E0946C9059
:1003F5000031E0940350159000027434F0A3741595
:10040500F09000217431F0A374C7F022D39000322C
:10041500E09488900031E094035015900002743602
:10042500F0A374FAF09000217435F0A37455F0220E
:10043500D3900032E094A4900031E0940390000240
:1004450050127439F0A37425F09000217436F0A38E
:1004550074C1F022743AF0A37498F09000217438B6
:06046500F0A374E3F02295
:10046B00900010E064016003020522900020E0641C
:10047B0001600302052290001DE064016003020588
:10048B002290001FE060030205227405F090003DEE
:10049B00E0FEA3E0FFC374729F90002AF0741C9ED1
:1004AB00900029F0E0FF3395E0FE90000EE02FF076
:1004BB0090000DE03EF0900003E024FAFE90000265
:1004CB00E0341490000BF0A3CEF0900002E0FFA3F9
:1004DB00E0900009CFF0A3EFF090000BE0FEA3E05B
:1004EB00FFC390000EE09F90000DE09E4005900032
:1004FB000B8018900009E0FEA3E0FFD390000EE004
:10050B009F90000DE09E500F900009E0FFA3E0903C
:08051B00000DCFF0A3EFF02268
:1006DD00C2D5E830E70FB2D5E4C39BFBE49AFAE448
:1006ED0099F9E498F8EC30E717B2D5120713120315
:1006FD0003E4C39BFBE49AFAE499F9E498F88003C8
:10070D0012030330D50DE4C39FFFE49EFEE49DFD6F
:04071D00E49CFC223A
:0E02A300C3E49FFFE49EFEE49DFDE49CFC226C
:1002B100EB9FF5F0EA9E42F0E99D42F0EC6480C8C4
:0602C10064809845F02264
:1002C70075F008758200EF2FFFEE33FECD33CDCCEE
:1002D70033CCC58233C5829BED9AEC99E582984071
:1002E7000CF582EE9BFEED9AFDEC99FC0FD5F0D64E
:1002F700E4CEFBE4CDFAE4CCF9A88222B800C1B978
:100307000059BA002DEC8BF084CFCECDFCE5F0CBB5
:10031700F97818EF2FFFEE33FEED33FDEC33FCEBEE
:1003270033FB10D703994004EB99FB0FD8E5E4F9A9
:10033700FA227818EF2FFFEE33FEED33FDEC33FC96
:10034700C933C910D7059BE99A4007EC9BFCE99A8A
:10035700F90FD8E0E4C9FAE4CCFB2275F010EF2FCF
:10036700FFEE33FEED33FDCC33CCC833C810D707CF
:100377009BEC9AE899400AED9BFDEC9AFCE899F80A
:0E0387000FD5F0DAE4CDFBE4CCFAE4C8F9229D
:00000001FF
