:10054000900016E0D39424400EE0943C50099000B3
:100550000D7401F0120660900016E0C3943C400652
:100560009000187401F0900016E0C3945A4009748A
:100570005AF09000157401F090001EE060079000A2
:1005800027E0B401161200061206C0900027E0B45E
:100590000102E4F090001E7401F02290001EE0229F
:1005EC001206A61206D31206E11206EF1206FC1230
:1005FC0006C0D2AF30A104D2CD8002C2CD9000098A
:10060C00E0FEA3E0FFC390002CE09F90002BE09E47
:10061C004004D2C78002C2C71204D212054080D453
:03000000020709EB
:0C070900787FE4F6D8FD75810F0205EC46
:1006A600E4F594F593F592F5917596FFF595F5A019
:0A06B600F5B275B1FCF5B4F5B322FE
:0E06D3005389F0758CFF758A9CD28CD2A922B7
:0E06E10053890F758DFF758B38D28ED2AB22E8
:0D06EF0075D6BE75D7E6438E1043AF0422CA
:0D06FC00C288D2A8D2B8C28AD2AAD2BA222D
:1006C000E4900024F0900002F090000CF01200067C
:0306D000C2A7229C
:030003000201589F
:10015800C0E0C0F0C083C082C0D075D00890000253
:10016800E4F012000690001EE06401600302023908
:1001780030B20690002BF0A3F0900016E004F012C5
:10018800024490000DE0B4011E900018E070189031
:100198000015E07012900019E0FFA3E0900009CF6D
:1001A800F0A3EFF002023990000DE0B4011F9000B7
:1001B80018E0B40118900015E0701290000974411D
:1001C800F0A3741AF075D6BE75D7E6806490000D5A
:1001D800E06401705C900018E064017054900015B0
:1001E800E06401704C900009E0FEA3E0FBAA0EE475
:1001F800C39BFFE49EFE74019400FDE49400FCE4BC
:10020800FB7A01F9F812001E8FD6900009E0FEA3D0
:10021800E0FBAA0EE4C39BFFE49EFE74019400FD7C
:10022800E49400FCE4FB7A01F9F812001EAF0B8F8E
:0C023800D7D0D0D082D083D0F0D0E032FC
:030013000203D213
:1003D200C0E0C083C082C0D075D00830B374900032
:1003E20026E004F090002BE0FFA3E090000FCFF096
:1003F200A3EFF0D3900010E094FF90000FE0947F01
:100402004020E0FEA3E0FBAA0E74FF9BFF74FF9E58
:10041200FEE49400FDE49400FC12006690002DEED0
:10042200800B90000FE0FFA3E090002DCFF0A3EF30
:10043200F0900015E0B4011A9000127401F09000DF
:100442000EE0D3946440069000277401F090000EF1
:0B045200E4F0D0D0D082D083D0E032A4
:03000B0002062CBE
:10062C00C0E0C083C082C0D090000CE0B4010C903C
:10063C000002E07006900024E004F0900024E0D367
:10064C00940A4007E4F090000204F0D0D0D082D09D
:04065C0083D0E03235
:03001B0002045D7F
:10045D00C0E0C0F0C083C082C0D075D00890001B32
:10046D00E004F090002CE0248FF090002BE034029B
:10047D00F0C3A3E094FF90002BE0947F9000115007
:10048D00057401F08002E4F090001EE0B4011890B4
:10049D00000DE0B40114900018E0700E900015E00E
:1004AD0070081204D28003120006900012E0B4010D
:1004BD000690000EE004F0120006D0D0D082D0835A
:0504CD00D0F0D0E03288
:030063000205A0F3
:1005A000C0E0C0F0C083C082C0D075D008900021E8
:1005B000E004F090001EE06401702390000DE06400
:1005C00001701E900018E06401701630B20530B35F
:1005D00002800620B20820B30512066080031200D4
:0C05E00006D0D0D082D083D0F0D0E03222
:1004D200900011E0B4012730B324900009E0FEA39C
:1004E200E0FFC390002CE09F90002BE09E404BD396
:1004F200A3E0947190002BE0945C503E8037900012
:1005020011E0703620B33390000AE024FFFF900020
:1005120009E0347FFEC390002CE09F90002BE09E08
:100522004016E0FEA3E0FFE4FCFD7B717ADCF9F803
:0E0532001200744003020660800012000622D0
:1006600090000CE0700204F0900002E07012900024
:1006700024E05401146006047008D2A122C2A12211
:03068000C2A122F2
:1006830090000CE0700204F0900002E07012900001
:1006930024E05401146006047008D2A222C2A222EC
:0306A300C2A222CE
:05000600C2A1C2A2220C
:10024400D3900023E09434900022E0940350028081
:100254000FD3900023E09440900022E094035015C3
:10026400900000742CF0A374D9F09000197427F056
:10027400A3741CF022D3900023E09450900022E059
:10028400940350149000007431F0A314F0900019FA
:10029400742EF0A374EFF022D3900023E0946C90BA
:1002A4000022E0940350159000007434F0A37415F8
:1002B400F09000197431F0A374C7F022D390002396
:1002C400E09488900022E094035015900000743666
:1002D400F0A374FAF09000197435F0A37455F02269
:1002E400D3900023E094A4900022E09403900000B3
:1002F40050127439F0A37425F09000197436F0A3E9
:1003040074C1F022743AF0A37498F0900019743810
:06031400F0A374E3F022E7
:10031A0090000DE0640160030203D1900018E064CC
:10032A000160030203D1900015E064016003020337
:10033A00D1900017E060030203D17405F090002DFC
:10034A00E0FEA3E0FFC374729F90001DF0741C9E30
:10035A0090001CF0E0FF3395E0FE90000AE02FF0D9
:10036A00900009E03EF0900001E024FAFE900000BF
:10037A00E03414900007F0A3CEF0900000E0FFA351
:10038A00E0900005CFF0A3EFF0900007E0FEA3E0B5
:10039A00FFC390000AE09F900009E09E400590008C
:1003AA00078018900005E0FEA3E0FFD390000AE062
:1003BA009F900009E09E500F900005E0FFA3E09097
:0803CA000009CFF0A3EFF022BF
:10001E00C2D5E830E70FB2D5E4C39BFBE49AFAE40D
:10002E0099F9E498F8EC30E717B2D51200541200A3
:10003E00C6E4C39BFBE49AFAE499F9E498F88003CA
:10004E001200C630D50DE4C39FFFE49EFEE49DFD75
:04005E00E49CFC2200
:0E006600C3E49FFFE49EFEE49DFDE49CFC22AB
:10007400EB9FF5F0EA9E42F0E99D42F0EC6480C803
:0600840064809845F022A3
:10008A0075F008758200EF2FFFEE33FECD33CDCC2D
:10009A0033CCC58233C5829BED9AEC99E5829840B0
:1000AA000CF582EE9BFEED9AFDEC99FC0FD5F0D68D
:1000BA00E4CEFBE4CDFAE4CCF9A88222B800C1B9B7
:1000CA000059BA002DEC8BF084CFCECDFCE5F0CBF5
:1000DA00F97818EF2FFFEE33FEED33FDEC33FCEB2E
:1000EA0033FB10D703994004EB99FB0FD8E5E4F9E9
:1000FA00FA227818EF2FFFEE33FEED33FDEC33FCD6
:10010A00C933C910D7059BE99A4007EC9BFCE99AC9
:10011A00F90FD8E0E4C9FAE4CCFB2275F010EF2F0E
:10012A00FFEE33FEED33FDCC33CCC833C810D7070E
:10013A009BEC9AE899400AED9BFDEC9AFCE899F849
:0E014A000FD5F0DAE4CDFBE4CCFAE4C8F922DC
:00000001FF
