:1006620090001EE0D39424400EE0943C5009900088
:10067200107401F012083890001EE0C3943C40064A
:100682009000217401F090001EE0C3945A40097456
:100692005AF090001D7401F0900016E0C313FEA3FF
:1006A200E013FFC3900001E09F900000E09E50081D
:1006B20090001C7401F08005E490001CF090001C76
:1006C200E0700320B30A90001CE0B4010A20B307D3
:1006D200E4900012F080069000127401F09000186D
:0F06E200E0700690002D04F022E490002DF0222D
:10006600C390003DE094FF90003CE0947F5018A3BD
:10007600E0946890003CE09442400CE4900025F047
:1000860090003504F0800AE4900035F090002504D5
:10009600F0C390003DE094FF90003CE0947F401F49
:1000A600E0FEA3E0FFE4FCFD7B687AC2F9F81202E9
:1000B600B1500CE4900027F090003404F0800B90CF
:1000C60000277401F0E4900034F0C390003DE09402
:1000D600FF90003CE0947F50089000187401F08077
:1000E60005E4900018F0D390003DE0948890003C21
:1000F600E094134014E0FEA3E0FFE4FCFD7B787A75
:100106006CF9F8D31202B15023D390003DE09487E6
:1001160090003CE09493401CE0FEA3E0FFE4FCFD6D
:100126007B777AECF9F8D31202B140089000157487
:1001360001F08005E4900015F030B308900035E03A
:100146006401600920B30E900027E0700890002932
:100156007401F08005E4900029F0900012E0B401EB
:1001660008900034E06401600C900012E0700E907C
:100176000025E0700890002C7401F08005E49000E2
:100186002CF0900015E070031207C3900007E0C33F
:0F019600940A5007A3E0C3940A40031200062204
:10001E001207A912081012081E120056120800121A
:10002E0007C31207EFD2AF1206F130A104D2CD8072
:10003E0002C2CD30A204D2C78002C2C7120662121B
:04004E00006680E3E5
:0300000002082CC7
:0C082C00787FE4F6D8FD75810F02001EF5
:1007A900E4F594F593F592F5917596FFF595F5A015
:0A07B900F5B275B1FCF5B4F5B322FA
:0E0810005389F0758CFF758A9CD28CD2A92278
:0E081E0053890F758DFF758B9CD28ED2AB2245
:0D00560075D6BE75D7E6438E1043AF042269
:10080000C288D2A8D2B8C28AD2AAD2BA438F102242
:1007C300E4900026F0900028F0900007F0900008D5
:0A07D300F090001FF0C2A1C2A222A4
:1007EF00900016E4F0A37464F0E4900000F0A3F01E
:0107FF0022D7
:030003000201A552
:1001A500C0E0C0F0C083C082C0D075D00830B21B9B
:1001B5009000417401F0900035E4F090002504F0C2
:1001C500900027F0900034E4F0801390003574011E
:1001D500F0900034F0900025E4F0900027F09000B6
:1001E5001EE004F0900010E0B4011E900021E070C4
:1001F5001890001DE07012900022E0FFA3E090002F
:100205000DCFF0A3EFF0020298900010E0B4011FAB
:10021500900021E0B4011890001DE0701290000DCF
:100225007441F0A3741AF075D6BE75D7E680649054
:100235000010E06401705C900021E064017054904E
:10024500001DE06401704C90000DE0FEA3E0FBAAE8
:100255000EE4C39BFFE49EFE74019400FDE494004C
:10026500FCE4FB7A01F9F81207388FD690000DE00F
:10027500FEA3E0FBAA0EE4C39BFFE49EFE7401947B
:1002850000FDE49400FCE4FB7A01F9F8120738AFAD
:0E0295000B8FD7D0D0D082D083D0F0D0E03203
:03001300020523C0
:10052300C0E0C083C082C0D075D00820B30790005C
:1005330000E4F0A3F020B3030205C2900000E0FF43
:10054300A3E0900016CFF0A3EFF0900000E4F0A337
:10055300F090003CE0FFA3E0900013CFF0A3EFF096
:10056300D3900014E094FF900013E0947F4020E0C8
:10057300FEA3E0FBAA0E74FF9BFF74FF9EFEE494B0
:1005830000FDE49400FC1202A390003EEE800B9069
:100593000013E0FFA3E090003ECFF0A3EFF0900044
:1005A3001DE0B4011A9000197401F0900011E0D31A
:1005B300946440069000387401F0900011E4F0D088
:0805C300D0D082D083D0E032D9
:0300530002000E9A
:01000E0032BF
:03000B0002000FE1
:01000F0032BE
:03001B000205CB10
:1005CB00C0E0C083C082C0D0900007E0C3940A5043
:1005DB001B900026E0B40110900028E0700AB2A135
:1005EB00900007E004F08006C2A18002C2A1900037
:1005FB0008E0C3940A501B900028E0B4011090004F
:10060B0026E0700AB2A2900008E004F08006C2A2B5
:10061B008002C2A2900041E0B4010AE4F090003CD9
:10062B00F0A3F0800E90003DE02447F090003CE0FA
:10063B003401F0900001E004F07006900000E0043B
:10064B00F0900019E0B40106900011E004F0D0D056
:07065B00D082D083D0E03211
:0300630002077C15
:10077C00C0E0C083C082C0D075D008900031E004C6
:10078C00F090002EE0B4010C900010E0B401059044
:0D079C000021E0FFD0D0D082D083D0E03229
:1006F100900029E0B4011C900015E0B401159000B0
:1007010028E0700F90001FE0700990002604F0901F
:10071100001FF090002CE0B4011C900015E0B40122
:1007210015900026E0700F90001FE07009900028DE
:0707310004F090001FF0220C
:070838009000267401F0227C
:1007DD00900026E0700690002804F022E490002896
:0207ED00F022F8
:05000600C2A1C2A2220C
:10039500D3900033E09434900032E094035002800F
:1003A5000FD3900033E09440900032E09403501551
:1003B500900002742CF0A374D9F09000227427F0F9
:1003C500A3741CF022D3900033E09450900032E0E7
:1003D500940350149000027431F0A314F09000229D
:1003E500742EF0A374EFF022D3900033E0946C9058
:1003F5000032E0940350159000027434F0A3741594
:10040500F09000227431F0A374C7F022D39000332A
:10041500E09488900032E094035015900002743601
:10042500F0A374FAF09000227435F0A37455F0220D
:10043500D3900033E094A4900032E094039000023E
:1004450050127439F0A37425F09000227436F0A38D
:1004550074C1F022743AF0A37498F09000227438B5
:06046500F0A374E3F02295
:10046B00900010E064016003020522900021E0641B
:10047B0001600302052290001DE064016003020588
:10048B0022900020E060030205227405F090003EEC
:10049B00E0FEA3E0FFC374729F90002BF0741C9ED0
:1004AB0090002AF0E0FF3395E0FE90000EE02FF075
:1004BB0090000DE03EF0900003E024FAFE90000265
:1004CB00E0341490000BF0A3CEF0900002E0FFA3F9
:1004DB00E0900009CFF0A3EFF090000BE0FEA3E05B
:1004EB00FFC390000EE09F90000DE09E4005900032
:1004FB000B8018900009E0FEA3E0FFD390000EE004
:10050B009F90000DE09E500F900009E0FFA3E0903C
:08051B00000DCFF0A3EFF02268
:10073800C2D5E830E70FB2D5E4C39BFBE49AFAE4EC
:1007480099F9E498F8EC30E717B2D512076E12035E
:1007580003E4C39BFBE49AFAE499F9E498F880036C
:1007680012030330D50DE4C39FFFE49EFEE49DFD14
:04077800E49CFC22DF
:0E02A300C3E49FFFE49EFEE49DFDE49CFC226C
:1002B100EB9FF5F0EA9E42F0E99D42F0EC6480C8C4
:0602C10064809845F02264
:1002C70075F008758200EF2FFFEE33FECD33CDCCEE
:1002D70033CCC58233C5829BED9AEC99E582984071
:1002E7000CF582EE9BFEED9AFDEC99FC0FD5F0D64E
:1002F700E4CEFBE4CDFAE4CCF9A88222B800C1B978
:100307000059BA002DEC8BF084CFCECDFCE5F0CBB5
:10031700F97818EF2FFFEE33FEED33FDEC33FCEBEE
:1003270033FB10D703994004EB99FB0FD8E5E4F9A9
:10033700FA227818EF2FFFEE33FEED33FDEC33FC96
:10034700C933C910D7059BE99A4007EC9BFCE99A8A
:10035700F90FD8E0E4C9FAE4CCFB2275F010EF2FCF
:10036700FFEE33FEED33FDCC33CCC833C810D707CF
:100377009BEC9AE899400AED9BFDEC9AFCE899F80A
:0E0387000FD5F0DAE4CDFBE4CCFAE4C8F9229D
:00000001FF
