:100508001205671205ED1205FB12061612062312D4
:1005180005DAD2AF30B304D2CD8002C2CD1204C204
:0205280080F25F
:03000000020630C5
:0C063000787FE4F6D8FD75810F02050804
:10058100E4FDFCC3ED9FEC9E500EE4FB0BEBB405C8
:08059100FB0DBD00010C80EB25
:01059900223F
:08002600900023EEF0A3EFF0BF
:10002E00E4A3F0A3F0900023E0FEA3E0FFC3900052
:10003E0026E09F900025E09E50157FFA7E00120567
:0F004E0081A3E004F070DE900025E004F080D67E
:01005D002280
:050006006F6B0D0A0004
:080648008F993099FDC299223F
:1005C700120182FF600C120648740129F9E43AFA15
:0305D70080EE2291
:10059A00AF051DEF6010120182FF1206487401298F
:0705AA00F9E43AFA80EA22AD
:0D0609008FEA8FFA7BFF7A0079060205C7A1
:030023000205498A
:0B054900C0E0C083C082C0D075D008A5
:0A055400309807C298AF991206090B
:09055E00D0D0D082D083D0E0326D
:10056700E4F594F593F592F5917596FFF595F5A059
:0A057700F5B275B1FCF5B4F5B3223E
:0E05ED005389F0758CFF758A9CD28CD2A9229E
:0E05FB0053890F758D9E758B58D28ED2AB2210
:0D06160075D6BE75D7E6438E1043AF0422A3
:1005B100759850E4F589758E50758BC7758DFED28F
:0605C1008ED2ACD2AF2285
:0D062300C288D2A8D2B8C28AD2AAD2BA2206
:1005DA00E4900017F0900000F0900004F012000E72
:0305EA00C2A72283
:0300030002006692
:10006600C0E0C0F0C083C082C0D075D00890001137
:10007600E06401600302017730B20690001EF0A32F
:10008600F012000E900000E4F090000EE004F0E0A4
:10009600D3942440099000057401F01204C2900024
:1000A6000EE0C3943C400690000F7401F090000EE1
:1000B600E0C3945A4009745AF090000D7401F0128E
:1000C6000000900005E0B4011E90000FE07018904B
:1000D600000DE07012900000E0FFA3E0900000CF5A
:1000E600F0A3EFF0020177900005E0B4011F900045
:1000F6000FE0B4011890000DE070129000007441FA
:10010600F0A3741AF075D6BE75D7E6806490000524
:10011600E06401705C90000FE06401705490000D83
:10012600E06401704C900000E0FEA3E0FBAA0EE440
:10013600C39BFFE49EFE74019400FDE49400FCE47E
:10014600FB7A01F9F812044A8FD6900000E0FEA36C
:10015600E0FBAA0EE4C39BFFE49EFE74019400FD3F
:10016600E49400FCE4FB7A01F9F812044AAF0B8F21
:0C017600D7D0D0D082D083D0F0D0E032BF
:0300130002028D59
:10028D00C0E0C083C082C0D075D00830B374900078
:10029D0019E004F090001EE0FFA3E0900007CFF0FE
:1002AD00A3EFF0D3900008E094FF900007E0947F57
:1002BD004020E0FEA3E0FBAA0E74FF9BFF74FF9E9F
:1002CD00FEE49400FDE49400FC12019B900020EEEE
:1002DD00800B900007E0FFA3E0900020CFF0A3EF8C
:1002ED00F090000DE0B4011A90000A7401F0900036
:1002FD0006E0D39464400690001A7401F090000655
:0B030D00E4F0D0D0D082D083D0E032EA
:03000B0002048E5E
:10048E00C0E0C083C082C0D0900004E0B4010C90E4
:10049E000000E07006900017E004F0900017E0D323
:1004AE00940A4007E4F090000004F0D0D0D082D03F
:0404BE0083D0E032D5
:03001B00020318C5
:10031800C0E0C0F0C083C082C0D075D00890001083
:10032800E004F090001FE02413F090001EE0340376
:10033800F0C3A3E094FF90001EE0947F9000095062
:10034800057401F08002E4F0900011E0B401189007
:100358000005E0B4011490000FE0700E90000DE06D
:100368007008120390800312000E12052A90000AEA
:10037800E0B40106900006E004F012000ED0D0D0E0
:0803880082D083D0F0D0E032F6
:030063000203FE97
:1003FE00C0E0C0F0C083C082C0D075D00890001499
:10040E00E004F0900011E064017023900005E064B8
:10041E0001701E90000FE06401701630B20530B30B
:10042E0002800620B20820B3051204C28003120017
:0C043E000ED0D0D082D083D0F0D0E032BD
:10039000900009E0B4012730B324900000E0FEA3F0
:1003A000E0FFC390001FE09F90001EE09E404BD3F3
:1003B000A3E0947190001EE0945C503E8037900062
:1003C00009E0703620B333900000E024FFFF900076
:1003D00000E0347FFEC390001FE09F90001EE09E6F
:1003E0004016E0FEA3E0FFE4FCFD7B717ADCF9F847
:0E03F0001201A940030204C2800012000E2276
:0300160002000ED7
:1004C200900004E0700204F0900000E070129000CE
:1004D20017E05401146006047008D2A122C2A122BE
:0304E200C2A12292
:1004E500900004E0700204F0900000E070129000AB
:1004F50017E05401146006047008D2A222C2A22299
:03050500C2A2226D
:05000E00C2A1C2A22204
:10052A00900000E004F0900000E0FF900000E0C3BB
:0F053A009F400BE4F0900000E06003E014F0221B
:0C063C009000007402F090000014F02206
:10018200BB010689828A83E0225002E722BBFE027B
:09019200E32289828A83E49322AE
:10044A00C2D5E830E70FB2D5E4C39BFBE49AFAE4DD
:10045A0099F9E498F8EC30E717B2D5120480120142
:10046A00FBE4C39BFBE49AFAE499F9E498F8800365
:10047A001201FB30D50DE4C39FFFE49EFEE49DFD0F
:04048A00E49CFC22D0
:0E019B00C3E49FFFE49EFEE49DFDE49CFC2275
:1001A900EB9FF5F0EA9E42F0E99D42F0EC6480C8CD
:0601B90064809845F0226D
:1001BF0075F008758200EF2FFFEE33FECD33CDCCF7
:1001CF0033CCC58233C5829BED9AEC99E58298407A
:1001DF000CF582EE9BFEED9AFDEC99FC0FD5F0D657
:1001EF00E4CEFBE4CDFAE4CCF9A88222B800C1B981
:1001FF000059BA002DEC8BF084CFCECDFCE5F0CBBF
:10020F00F97818EF2FFFEE33FEED33FDEC33FCEBF7
:10021F0033FB10D703994004EB99FB0FD8E5E4F9B2
:10022F00FA227818EF2FFFEE33FEED33FDEC33FC9F
:10023F00C933C910D7059BE99A4007EC9BFCE99A93
:10024F00F90FD8E0E4C9FAE4CCFB2275F010EF2FD8
:10025F00FFEE33FEED33FDCC33CCC833C810D707D8
:10026F009BEC9AE899400AED9BFDEC9AFCE899F813
:0E027F000FD5F0DAE4CDFBE4CCFAE4C8F922A6
:00000001FF
