:100159001201871201C71201D51201E312019ED2C1
:07016900AFA2B292CD80FAB3
:10014000E4FDFCC3ED9FEC9E500EE4FB0BEBB4050D
:08015000FB0DBD00010C80EB6A
:010158002284
:0800260090001FEEF0A3EFF0C3
:10002E00E4A3F0A3F090001FE0FEA3E0FFC3900056
:10003E0022E09F900021E09E50157FFA7E00120173
:0F004E0040A3E004F070DE900021E004F080D6C3
:01005D002280
:05001E006F6B0D0A00EC
:080003008F993099FDC299228A
:1001B4001200D4FF600C120003740129F9E43AFA26
:0301C40080EE22A8
:10017000AF051DEF60101200D4FF120003740129B7
:07018000F9E43AFA80EA22DB
:0D000E008FEA8FFA7BFF7A00791E0201B4A1
:03002300020122B5
:0B012200C0E0C083C082C0D075D008D0
:0A012D00309807C298AF9912000E37
:09013700D0D0D082D083D0E03298
:10018700E4F594F593F592F591F596F595F5B27535
:07019700B1FFF5B4F5B3223E
:0E01C7005389F0758CFF758A9CD28CD2A922C8
:0E01D50053890F758DFF758B38D28ED2AB22F9
:0D01E30075D6FF75D706438E1043AF04227A
:10019E00759850E4F589758E50758BC7758DFED2A6
:0601AE008ED2ACD2AF229C
:03000B000200618F
:01006100326C
:03001B000200627E
:01006200326B
:030063000202286E
:0102280032A3
:10006600900023E0B4012730B324900000E0FEA303
:10007600E0FFC390001BE09F90001AE09E404BD328
:10008600A3E0947190001AE0945C503E8037900093
:1000960023E0703620B333900000E024FFFF900089
:1000A60000E0347FFEC390001BE09F90001AE09EA4
:1000B6004016E0FEA3E0FFE4FCFD7B717ADCF9F874
:0E00C6001200ED400302021C800012021F22F5
:03005E0002021F7C
:03021C00C2A1225A
:03021F00D2A12247
:03022200D2A12244
:03022500C2A12251
:0A02080030B20302022212021C228F
:0A02120030B20302022512021F227F
:10010300900000E004F0900000E0FF900000E0C3E6
:0F0113009F400BE4F0900000E06003E014F02246
:0C01F0009000007402F090000014F02257
:030000000201FCFE
:0C01FC00787FE4F6D8FD75810F020159F0
:1000D400BB010689828A83E0225002E722BBFE022A
:0900E400E32289828A83E493225D
:1000ED00EB9FF5F0EA9E42F0E99D42F0EC6480C88A
:0600FD0064809845F0222A
:00000001FF
