:1005290090001DE0C313FEA3E013FFC3900001E098
:100539009F900000E09E50089000237401F0800510
:10054900E4900023F0900023E0700320B30A9000A8
:1005590023E0B4010A20B307E4900015F080069067
:1005690000157401F0900010E0C313FFD390001E32
:10057900E09F90001DE0940050089000127401F073
:100589008005E4900012F0900010E0FFD390001E67
:10059900E09F90001DE0940050089000037401F062
:1005A9008005E4900003F090001FE070069000378A
:0905B90004F022E4900037F02266
:1001FA00C3900048E094FF900047E0947F502A9013
:10020A000049E0FEA3E0FFC374FF9FFF747F9EFED8
:10021A00D3900048E09F900047E09E400CE4900095
:10022A002FF090003F04F0800AE490003FF0900025
:10023A002F04F0C3900048E094FF900047E0947FB9
:10024A004037900049E0FEA3E0FBAA0674FF9BFB3F
:10025A0074FF9EFAE49400F9E49400F8900047E0F1
:10026A00FEA3E0FFE4FCFDC3120371500CE490000E
:10027A0031F090003E04F0800B9000317401F0E4FC
:10028A0090003EF0C3900048E094FF900047E0944D
:10029A007F500890001F7401F08005E490001FF061
:1002AA00D3900048E094D0900047E094074014E0CF
:1002BA00FEA3E0FFE4FCFD7B307A78F9F8D3120361
:1002CA00715023D3900048E094CF900047E0948780
:1002DA00401CE0FEA3E0FFE4FCFD7B2F7AF8F9F86E
:1002EA00D3120371400890001C7401F08005E49059
:1002FA00001CF030B30890003FE06401600920B3AD
:10030A000E900031E070089000337401F08005E42B
:10031A00900033F0900015E0B4010890003EE064CC
:10032A0001600C900015E0700E90002FE0700890AC
:10033A0000367401F08005E4900036F090001CE06D
:10034A007003120898900006E0C3940A5007A3E0CD
:09035A00C3940A400312000622BC
:10006600900019E0603024FE60631460431470034E
:100076000201081470030201EA240460030201F974
:10008600900024E0D39424400AE0943C5005E49088
:100096000019F0020898900024E0C3943C400690B2
:1000A60000197403F09000497413F0A37488F022C9
:1000B600900024E0C3945A4009745AF090001974D1
:1000C60002F0900049743AF0A37498F0229000125E
:1000D600E0B401239000197404F0900008743CF019
:1000E600A37417F090000A747FF0A374FDF0E490F7
:1000F6000018F0900014F0900049743DF0A3749736
:10010600F022900008E0FEA3E0FF90000BE02FFF36
:1001160090000AE03EC313FEEF13FF90002CEEF0B2
:10012600A3EFF090002CE0FFA3E0900049CFF0A3EE
:10013600EFF0900008E0FEA3E0FFD390000BE09FF5
:1001460090000AE09E4037900018E0B4013090001D
:1001560012E090002DB4010FE02401FE90002CE087
:10016600340090000A800DE024FFFE90002CE0345D
:10017600FF900008F0A3CEF0E4900018F022900063
:10018600197405F090004BE0FFA3E090001ACFF041
:10019600A3EFF0900049E0FEA3E0FBAA06E4C39BB0
:1001A600FF74809EFEE49400FDE49400FC78021245
:1001B600038790002AEEF0A3EFF090002AE0FEA35A
:1001C600E07802CEC313CE13D8F9FF90002BE02FB0
:1001D600F090002AE03EF0E0FFA3E0900040CFF070
:1001E600A3EFF0221206D7900012E07006900019D5
:0401F6007407F02278
:10001E0012087E1208C21208D01207411208B2123C
:10002E000898120852D2AF900019E0B40105E064AE
:10003E00056003120817A2A192C71205291201FA30
:05004E0012006680E2D3
:03000000020056A5
:0C005600787FE4F6D8FD75810F02001ED3
:10087E00E4F594F593F592F5917596FFF595F5A03F
:0A088E00F5B275B1FCF5B4F5B32224
:0E08C2005389F0758CFF758A9CD28CD2A922C6
:0E08D00053890F758DFF758B9CD28ED2AB2293
:1007410090002AE0FEA3E0FBAA06E4C39BFFE49E1F
:10075100FE74019400FDE49400FCE4FB7A01F9F8D5
:100761001207948FD690002AE0FEA3E0FBAA06E4CC
:10077100C39BFFE49EFE74019400FDE49400FCE43D
:10078100FB7A01F9F8120794AF038FD7438E144314
:03079100AF042290
:1008B200C288D2A8D2B8C28AD2AAD2BA438F102290
:10089800E4900030F0900032F0900006F0900007ED
:0A08A800F0900025F0C2A1C2A222C8
:1008520090001DE4F0A37464F0E4900000F0A3F0B3
:100862009000107464F0E4900049F0A3F01208982C
:0C087200E4900019F090002AF0A3F0229E
:030003000204698B
:10046900C0E0C0F0C083C082C0D075D00830B21BD4
:1004790090004E7401F090003FE4F090002F04F0DA
:10048900900031F090003EE4F0801390003F740139
:10049900F090003EF090002FE4F0900031F09000D1
:1004A90024E004F0900018E07013900014E004F0C8
:1004B900E0D3940A4007E4F090001804F090001982
:1004C900E06405705090002AE0FEA3E0FBAA0EE468
:1004D900C39BFFE49EFE74019400FDE49400FCE4D8
:1004E900FB7A01F9F81207948F8C90002AE0FEA399
:1004F900E0FBAA0EE4C39BFFE49EFE74019400FD99
:10050900E49400FCE4FB7A01F9F8120794AF0B8F2D
:100519008AD28CC28DD0D0D082D083D0F0D0E032B4
:030013000206538F
:10065300C0E0C083C082C0D075D00820B30790002B
:1006630000E4F0A3F030B363900000E0FFA3E09058
:10067300001DCFF0A3EFF0900000E4F0A3F0900092
:1006830047E0FFA3E0900016CFF0A3EFF0D3900074
:1006930017E094FF900016E0947F4020E0FEA3E073
:1006A300FBAA0E74FF9BFF74FF9EFEE49400FDE41F
:1006B3009400FC12036390004BEE800B900016E055
:1006C300FFA3E090004BCFF0A3EFF0D0D0D082D0C7
:0406D30083D0E032BE
:0300530002000E9A
:01000E0032BF
:03000B000207D811
:1007D800C0E0C0F0C083C082C0D075D008C28CC24F
:1007E8008D900019E06405701B900032E070159040
:1007F8000025E0700F30B20320B30620B20620B304
:0F080800031208DED0D0D082D083D0F0D0E032FF
:03001B000205C219
:1005C200C0E0C083C082C0D0900006E0C3940A504D
:1005D20015900030E0B4010AB2A1900006E004F0E8
:1005E2008006C2A18002C2A1900007E0C3940A5013
:1005F20015900032E0B4010AB2A2900007E004F0C4
:100602008006C2A28002C2A290004EE0B40117E4AA
:10061200F0900047F0A3F0900046E0900010F090B8
:100622000046E4F08014900048E02447F090004730
:10063200E03401F0900046E004F0900001E004F0A4
:100642007006900000E004F0D0D0D082D083D0E0D9
:010652003275
:0300630002000F89
:01000F0032BE
:10081700900033E0B4011690001CE0B4010F900083
:1008270032E07009900025E070031208DE90003670
:10083700E0B4011690001CE0B4010F900030E070A6
:0B08470009900025E070031208E92270
:0B08DE009000307401F0900025F02223
:0B08E9009000327401F0900025F02216
:05000600C2A1C2A2220C
:1006D70090004BE0FEA3E0FFC390001BE09FFF905C
:1006E700001AE09E900034F0A3EFF0900034E0FF92
:1006F7003395E0FE90002BE02FF090002AE03EF0CB
:10070700C3A3E0941090002AE0942740087427F0D0
:10071700A37410F022900040E0FEA3E0FFD3900006
:100727002BE09F90002AE09E500F900040E0FFA32F
:0A073700E090002ACFF0A3EFF022BB
:10079400C2D5E830E70FB2D5E4C39BFBE49AFAE490
:1007A40099F9E498F8EC30E717B2D51207CA1203A6
:1007B400D7E4C39BFBE49AFAE499F9E498F880033C
:1007C4001203D730D50DE4C39FFFE49EFEE49DFDE4
:0407D400E49CFC2283
:0E036300C3E49FFFE49EFEE49DFDE49CFC22AB
:10037100EB9FF5F0EA9E42F0E99D42F0EC6480C803
:0603810064809845F022A3
:10038700E86010ECA2E713FCED13FDEE13FEEF138C
:04039700FFD8F02279
:10039B0075F008758200EF2FFFEE33FECD33CDCC19
:1003AB0033CCC58233C5829BED9AEC99E58298409C
:1003BB000CF582EE9BFEED9AFDEC99FC0FD5F0D679
:1003CB00E4CEFBE4CDFAE4CCF9A88222B800C1B9A3
:1003DB000059BA002DEC8BF084CFCECDFCE5F0CBE1
:1003EB00F97818EF2FFFEE33FEED33FDEC33FCEB1A
:1003FB0033FB10D703994004EB99FB0FD8E5E4F9D5
:10040B00FA227818EF2FFFEE33FEED33FDEC33FCC1
:10041B00C933C910D7059BE99A4007EC9BFCE99AB5
:10042B00F90FD8E0E4C9FAE4CCFB2275F010EF2FFA
:10043B00FFEE33FEED33FDCC33CCC833C810D707FA
:10044B009BEC9AE899400AED9BFDEC9AFCE899F835
:0E045B000FD5F0DAE4CDFBE4CCFAE4C8F922C8
:00000001FF
