:10019C001201701201C21201D01201DE120186D2BC
:0301AC00AF80FE23
:10014000E4FDFCC3ED9FEC9E500EE4FB0BEBB4050D
:08015000FB0DBD00010C80EB6A
:010158002284
:0800260090001FEEF0A3EFF0C3
:10002E00E4A3F0A3F090001FE0FEA3E0FFC3900056
:10003E0022E09F900021E09E50157FFA7E00120173
:0F004E0040A3E004F070DE900021E004F080D6C3
:01005D002280
:05001E006F6B0D0A00EC
:080003008F993099FDC299228A
:1001AF001200D4FF600C120003740129F9E43AFA2B
:0301BF0080EE22AD
:10015900AF051DEF60101200D4FF120003740129CE
:07016900F9E43AFA80EA22F2
:0D000E008FEA8FFA7BFF7A00791E0201AFA6
:03002300020122B5
:0B012200C0E0C083C082C0D075D008D0
:0A012D00309807C298AF9912000E37
:09013700D0D0D082D083D0E03298
:10017000E4F594F593F592F591F596F595F5B2F5CC
:06018000B1F5B4F5B32255
:0E01C2005389F0758CFF758A9CD28CD2A922CD
:0E01D00053890F758DFF758B38D28ED2AB22FE
:0D01DE0075D6FF75D706438E1043AF04227F
:10018600759850E4F589758E50758BC7758DFED2BE
:060196008ED2ACD2AF22B4
:03000B000200618F
:01006100326C
:03001B000200627E
:01006200326B
:0300630002005E3A
:03005E00B2CD32EE
:10006600900023E0B4012730A024900000E0FEA316
:10007600E0FFC390001BE09F90001AE09E404BD328
:10008600A3E0947190001AE0945C503E8037900093
:1000960023E0703620A033900000E024FFFF90009C
:1000A60000E0347FFEC390001BE09F90001AE09EA4
:1000B6004016E0FEA3E0FFE4FCFD7B717ADCF9F874
:0E00C6001200ED400302021A800012021D22F9
:0302170002021DC3
:03021A00C2A72256
:03021D00D2A72243
:03022000D2A72240
:03022300C2A7224D
:0A02030030A10302022012021A22A9
:0A020D0030A10302022312021D2299
:10010300900000E004F0900000E0FF900000E0C3E6
:0F0113009F400BE4F0900000E06003E014F02246
:0C01EB009000007402F090000014F0225C
:030000000201F703
:0C01F700787FE4F6D8FD75810F02019CB2
:1000D400BB010689828A83E0225002E722BBFE022A
:0900E400E32289828A83E493225D
:1000ED00EB9FF5F0EA9E42F0E99D42F0EC6480C88A
:0600FD0064809845F0222A
:00000001FF
