:10052800900017E0D39424400EE0943C50099000CA
:100538000D7401F01206AC900017E0C3943C40061D
:100548009000197401F0900017E0C3945A400974A0
:100558005AF09000167401F0900020E060079000B7
:100568002AE0B4011712000612072890002AE0B406
:100578000102E4F09000207401F08005900020E072
:10058800FF900020E0B4011690000DE0B401129035
:100598000019E0700C900016E070060206F21200D6
:0205A800062229
:10031F00C390002FE094FF90002EE0947F5014A321
:10032F00E0942090002EE0944E4008900027740136
:10033F00F08005E4900027F0C390002FE094FF9029
:10034F00002EE0947F401AE0FEA3E0FFE4FCFD7B6B
:10035F00207ACEF9F81200745007E490001DF08057
:10036F000690001D7401F0C390002FE094FF9000E1
:10037F002EE0947F50089000127401F08005E490F5
:10038F000012F0D390002FE0948890002EE0941389
:10039F004014E0FEA3E0FFE4FCFD7B787A6CF9F8F3
:1003AF00D31200745023D390002FE0948790002E27
:1003BF00E09493401BE0FEA3E0FFE4FCFD7B777A23
:1003CF00ECF9F8D312007440079000117401F02279
:0603DF00E4900011F02281
:1005F60012070E12073B1207491207571207641219
:100606000728D2AF900011E0B40104D2CD8002C217
:10061600CD30B308900027E06401600920B30D9047
:10062600001DE07007D2C71206AC8002C2C71205D1
:060636002812031F80CE14
:0300000002077183
:0C077100787FE4F6D8FD75810F0205F6D4
:10070E00E4F594F593F592F5917596FFF595F5A0B0
:0A071E00F5B275B1FCF5B4F5B32295
:0E073B005389F0758CFF758A9CD28CD2A9224E
:0E07490053890F758DFF758B9CD28ED2AB221B
:0D07570075D6BE75D7E6438E1043AF042261
:0D076400C288D2A8D2B8C28AD2AAD2BA22C4
:10072800E4900026F0900002F090000CF012000611
:03073800C2A72233
:030003000201589F
:10015800C0E0C0F0C083C082C0D075D00890000253
:10016800E4F0900026F090000CF0900020E064018C
:10017800600302023E30B20690002EF0A3F0900019
:1001880017E004F012024990000DE0B4011E90003F
:1001980019E07018900016E0701290001AE0FFA3A2
:1001A800E0900009CFF0A3EFF002023E90000DE0CE
:1001B800B4011F900019E0B40118900016E0701205
:1001C8009000097441F0A3741AF075D6BE75D7E68D
:1001D800806490000DE06401705C900019E0640197
:1001E8007054900016E06401704C900009E0FEA382
:1001F800E0FBAA0EE4C39BFFE49EFE74019400FD9D
:10020800E49400FCE4FB7A01F9F812001E8FD69002
:100218000009E0FEA3E0FBAA0EE4C39BFFE49EFEF8
:1002280074019400FDE49400FCE4FB7A01F9F812EF
:10023800001EAF0B8FD7D0D0D082D083D0F0D0E0C3
:010248003283
:0300130002049D47
:10049D00C0E0C083C082C0D075D00830B374900066
:1004AD0029E004F090002EE0FFA3E090000FCFF0C4
:1004BD00A3EFF0D3900010E094FF90000FE0947F35
:1004CD004020E0FEA3E0FBAA0E74FF9BFF74FF9E8D
:1004DD00FEE49400FDE49400FC120066900030EE02
:1004ED00800B90000FE0FFA3E0900030CFF0A3EF62
:1004FD00F0900016E0B4011A9000137401F0900012
:10050D000EE0D39464400690002A7401F090000E22
:0B051D00E4F0D0D0D082D083D0E032D8
:03000B0002067872
:10067800C0E0C083C082C0D090000CE0B4010C90F0
:100688000002E07006900026E004F0900026E0D317
:10069800940A4007E4F090000204F0D0D0D082D051
:0406A80083D0E032E9
:03001B0002063C9E
:10063C00C0E0C0F0C083C082C0D075D00890001C50
:10064C00E004F090002FE02447F090002EE03401FD
:10065C00F0900013E0B4010690000EE004F01200DC
:0C066C0006D0D0D082D083D0F0D0E03295
:030063000205AAE9
:1005AA00C0E0C0F0C083C082C0D075D008900023DC
:1005BA00E004F0900020E06401702390000DE064F4
:1005CA0001701E900019E06401701630B20530B354
:1005DA0002800620B20820B3051206AC800312007E
:0C05EA0006D0D0D082D083D0F0D0E03218
:1006F200900027E0B4010530B302800990001DE0AC
:0C070200700620B3030206AC12000622B1
:1006AC0090000CE0700204F0900002E070129000D8
:1006BC0026E05401146006047008D2A122C2A122C3
:0306CC00C2A122A6
:1006CF0090000CE0700204F0900002E070129000B5
:1006DF0026E05401146006047008D2A222C2A2229E
:0306EF00C2A22282
:05000600C2A1C2A2220C
:10024900D3900025E09434900024E0940350028078
:100259000FD3900025E09440900024E094035015BA
:10026900900000742CF0A374D9F090001A7427F050
:10027900A3741CF022D3900025E09450900024E050
:10028900940350149000007431F0A314F090001AF4
:10029900742EF0A374EFF022D3900025E0946C90B3
:1002A9000024E0940350159000007434F0A37415F1
:1002B900F090001A7431F0A374C7F022D39000258E
:1002C900E09488900024E09403501590000074365F
:1002D900F0A374FAF090001A7435F0A37455F02263
:1002E900D3900025E094A4900024E09403900000AA
:1002F90050127439F0A37425F090001A7436F0A3E3
:1003090074C1F022743AF0A37498F090001A74380A
:06031900F0A374E3F022E2
:1003E50090000DE06401600302049C900019E06434
:1003F50001600302049C900016E06401600302049E
:100405009C900018E0600302049C7405F090003095
:10041500E0FEA3E0FFC374729F90001FF0741C9E62
:1004250090001EF0E0FF3395E0FE90000AE02FF00B
:10043500900009E03EF0900001E024FAFE900000F3
:10044500E03414900007F0A3CEF0900000E0FFA385
:10045500E0900005CFF0A3EFF0900007E0FEA3E0E9
:10046500FFC390000AE09F900009E09E40059000C0
:10047500078018900005E0FEA3E0FFD390000AE096
:100485009F900009E09E500F900005E0FFA3E090CB
:080495000009CFF0A3EFF022F3
:10001E00C2D5E830E70FB2D5E4C39BFBE49AFAE40D
:10002E0099F9E498F8EC30E717B2D51200541200A3
:10003E00C6E4C39BFBE49AFAE499F9E498F88003CA
:10004E001200C630D50DE4C39FFFE49EFEE49DFD75
:04005E00E49CFC2200
:0E006600C3E49FFFE49EFEE49DFDE49CFC22AB
:10007400EB9FF5F0EA9E42F0E99D42F0EC6480C803
:0600840064809845F022A3
:10008A0075F008758200EF2FFFEE33FECD33CDCC2D
:10009A0033CCC58233C5829BED9AEC99E5829840B0
:1000AA000CF582EE9BFEED9AFDEC99FC0FD5F0D68D
:1000BA00E4CEFBE4CDFAE4CCF9A88222B800C1B9B7
:1000CA000059BA002DEC8BF084CFCECDFCE5F0CBF5
:1000DA00F97818EF2FFFEE33FEED33FDEC33FCEB2E
:1000EA0033FB10D703994004EB99FB0FD8E5E4F9E9
:1000FA00FA227818EF2FFFEE33FEED33FDEC33FCD6
:10010A00C933C910D7059BE99A4007EC9BFCE99AC9
:10011A00F90FD8E0E4C9FAE4CCFB2275F010EF2F0E
:10012A00FFEE33FEED33FDCC33CCC833C810D7070E
:10013A009BEC9AE899400AED9BFDEC9AFCE899F849
:0E014A000FD5F0DAE4CDFBE4CCFAE4C8F922DC
:00000001FF
