:10015900E4F594F593F592F591F596F595F5B2F5E3
:06016900B1F5B4F5B3226C
:0B01BB0012015912016F12000380FEB8
:10011000E4FDFCC3ED9FEC9E500EE4FB0BEBB4053D
:08012000FB0DBD00010C80EB9A
:0101280022B4
:08002600900000EEF0A3EFF0E2
:10002E00E4A3F0A3F0900000E0FEA3E0FFC3900075
:10003E0003E09F900002E09E50157FFA7E001201B1
:0F004E0010A3E004F070DE900002E004F080D612
:01005D002280
:04005E004100042039
:1000030043A210E4F5D8F5E9F5F975D902F5F290B4
:0E0013000004E0FFF5EA8FFA75DA42D2DE2231
:0501CE006F6B0D0A003B
:10016F00759850E4F589758E40758BDF758DFED2CD
:06017F008ED2ACD2AF22CB
:0801C6008F993099FDC29922C6
:10019B00120129FF600C1201C6740129F9E43AFA25
:0301AB0080EE22C1
:10014200AF051DEF6010120129FF1201C6740129CB
:07015200F9E43AFA80EA2209
:0D01AE008FEA8FFA7BFF7A0179CE02019B68
:030023000200F2E6
:0B00F200C0E0C083C082C0D075D00801
:0A00FD00309807C298AF991201AEC7
:09010700D0D0D082D083D0E032C8
:10018500E4F594F593F592F591F596F595F5B2F5B7
:06019500B1F5B4F5B32240
:0300630002002177
:0100210032AC
:0300000002006695
:0C006600787FE4F6D8FD75810F0200AD34
:10012900BB010689828A83E0225002E722BBFE02D4
:09013900E32289828A83E4932207
:100072000201BBE493A3F8E493A34003F68001F2E8
:1000820008DFF48029E493A3F85407240CC8C3338F
:10009200C4540F4420C8834004F456800146F6DF5E
:1000A200E4800B010204081020408090005EE47E90
:1000B200019360BCA3FF543F30E509541FFEE49353
:1000C200A360010ECF54C025E060A840B8E493A31A
:1000D200FAE493A3F8E493A3C8C582C8CAC583CA45
:1000E200F0A3C8C582C8CAC583CADFE9DEE780BEFD
:01006200009D
:00000001FF
